:020000040800F2
:10000000E050002075020008ED320008392E00088B
:10001000DD320008E1050008213A00080000000078
:10002000000000000000000000000000C1330008D4
:100030007508000800000000F1320008ED330008E8
:100040008F0200088F0200088F0200088F0200084C
:100050008F0200088F0200088F0200088F0200083C
:100060008F0200088F0200088F0200088F0200082C
:100070002D0800088F020008390800088F020008C8
:100080008F0200088F0200088F020008490600084E
:1000900025060008310600083D0600088F0200080A
:1000A0008F020008DD3400088F0200088F0200086C
:1000B0008F0200088F020008E93400088F02000850
:1000C0008F0200088F0200088F0200088F020008CC
:1000D0008F020008FD3900088F020008093A000865
:1000E0008F0200088F0200088F0200088F020008AC
:1000F0008F0200088F0200088F0200088F0200089C
:100100008F0200088F0200088F0200088F0200088B
:100110008F0200088F0200088F0200088F0200087B
:100120008F02000845080008510800088F020008E7
:100130008F0200088F0200088F0200088F0200085B
:10014000550600088F0200088F0200088F02000881
:100150008F0200085D08000869080008153A0008C9
:100160008F0200088F0200088F0200088F0200082B
:100170008F0200088F0200088F02000800000000B4
:100180008F0200088F02000800F002F800F062F809
:1001900014A696E8000CB244B344DA4501D100F04D
:1001A00059F8BAE80F000FA696E83000A5EB040551
:1001B00004EB0607AAEB0704A7F101074FEA1515A0
:1001C0004FEA3414A4F10104AC4201D300F042F828
:1001D00013F0010F18BFFB1A43F0010300F001F800
:1001E000DBE71847945C0000B45C00000A4410F898
:1001F000014B14F00F0508BF10F8015B240908BF7C
:1002000010F8014B6D1E05D010F8013B6D1E01F872
:10021000013BF9D1641E03D0641E01F8015BFBD1E0
:100220009142E4D37047000070470000002300248F
:1002300000250026103A28BF78C1FBD8520728BFF6
:1002400030C148BF0B6070471FB505F033FD1FBDBF
:1002500010B510BD00F05AF91146FFF7F5FF04F094
:100260001DFB00F078F903B4FFF7F2FF03BC00F0C8
:100270007BF900000948804709480047FEE7FEE790
:10028000FEE7FEE7FEE7FEE7FEE7FEE7FEE7FEE746
:1002900004480549054A064B70470000C934000868
:1002A00089010008E04A0020E0500020E04C0020D6
:1002B000E04C002053EA020C00F069802DE9F04B7D
:1002C0004FF00006002B1FBFB3FA83F503FA05F4C5
:1002D00024FA05F65E4012BF1643B2FA82F502FA1E
:1002E00005F4C5F120051EBF22FA05FC44EA0C0402
:1002F000203556EA044C4FEA144418BF641C4FF0F2
:1003000000084FF00009904271EB030C39D300292B
:1003100019BFB1FA81F701FA07F6B0FA80F700FACF
:1003200007F6C7F120071EBF20FA07FC46EA0C06B5
:100330002037B6FBF4FCA7EB0507103F07F01F0BB7
:10034000CBF120062CFA06F60CFA0BFB44BFB346A1
:100350000026202FA4BF5E464FF0000B5BEA060C80
:1003600008BF4FF0010B19EB0B0948EB0608ABFB7C
:10037000027C06FB02CC0BFB03CCC01B71EB0C0117
:10038000C1E70B46024641464846BDE8F08B13B52F
:10039000084318BF4FF0FF300146AFF30080BDE8BF
:1003A0001C407047032A40F2308010F0030C00F02C
:1003B000158011F8013BBCF1020F624498BF11F89F
:1003C00001CB00F8013B38BF11F8013BA2F1040258
:1003D00098BF00F801CB38BF00F8013B11F00303D0
:1003E00000F02580083AC0F0088051F8043B083A34
:1003F00051F804CBA0E80810F5E7121D5CBF51F8D6
:10040000043B40F8043BAFF30080D20724BF11F84F
:10041000013B11F801CB48BF11F8012B24BF00F8B4
:10042000013B00F801CB48BF00F8012B704710B525
:10043000203AC0F00B80B1E81850A0E81850B1E89D
:100440001850A0E81850203ABFF4F5AF5FEA027CDC
:1004500024BFB1E81850A0E8185044BF18C918C00C
:10046000BDE810405FEA827C24BF51F8043B40F8AD
:10047000043B08BF7047D20728BF31F8023B48BF92
:1004800011F8012B28BF20F8023B48BF00F8012BD0
:1004900070474FF0000200B5134694469646203947
:1004A00022BFA0E80C50A0E80C50B1F12001BFF42D
:1004B000F7AF090728BFA0E80C5048BF0CC05DF893
:1004C00004EB890028BF40F8042B08BF704748BFE1
:1004D00020F8022B11F0804F18BF00F8012B704755
:1004E00070477047704710B500F008F8006810BDFD
:1004F00010B5044600F002F8046010BD00487047D3
:100500008005002000487047800500207546FFF7F1
:10051000F9FFAE4605006946534620F007008546C0
:1005200018B020B5FFF7B4FEBDE820404FF000063C
:100530004FF000074FF000084FF0000BAC46ACE85E
:10054000C009ACE8C009ACE8C009ACE8C00921F0BA
:1005500007018D46704710B50446AFF30080204672
:10056000BDE81040FFF77FBE01491820ABBEFEE793
:10057000260002007047000040F2000840F20C150F
:1005800040F2706640F260679FED148A40F2646446
:10059000C2F20008C2F20005C2F20006C2F2000771
:1005A000C2F2000400F00CF9B8F9080096ED031A45
:1005B00000EE100AB5F9080097ED002A03EE100AC4
:1005C000D4ED002AB8EEC00AF8EEC30AF0EE481ADD
:1005D00004F03CF8012004F089F9E3E70000000092
:1005E000FEE7000040F21854C2F200040125002684
:1005F00009E000BF03F024FE84F84E5084F85060F8
:10060000C82004F073F994F850000028F2D194F84F
:1006100051000028F4D003F071FE84F84F5084F8A4
:100620005160EDE740F2F460C2F2000000F09ABAC7
:1006300040F2F460C2F2000000F094BA40F2F460BC
:10064000C2F2000000F08EBA40F2F460C2F2000084
:1006500000F088BA40F21C70C2F2000000F082BACA
:1006600080B58AB0012000210890CDE906100E2047
:10067000099040F2F460CDE90411CDE90011CDE913
:100680000211C2F20000694600F058F9002818BFB4
:1006900000F0F2F840F2F460C2F2000000F0DEFC7C
:1006A000002818BF00F0E8F840F2F460C2F2000041
:1006B000122100F0E5F8002818BF00F0DDF80E2048
:1006C000059040F21C70C2F20000694600F036F955
:1006D000002818BF00F0D0F840F21C70C2F20000F1
:1006E00000F0BCFC002818BF00F0C6F840F21C70F7
:1006F000C2F20000122100F0C3F8002818BF00F079
:10070000BBF80AB080BD000040F28060C2F2000079
:100710000178502918BF704710B52DED048BD0F823
:1007200001009FED1F1A00EE100A9FED1E2A30EE09
:10073000011A81EE020A9FED1C2A9FED1C9A9FED83
:100740001D8A40F27064C2F20004F0EE480A206094
:1007500084ED011A20EE020A9FED152A20EE090A07
:1007600080EE020A84ED020A05F080F89FED121A6D
:1007700084ED030AB4EE410AF1EE10FA06DBB4EEA2
:10078000490AF1EE10FA05DD9FED0C8A30EE080AF9
:1007900084ED030ABDEC048BBDE81040704700BF38
:1007A0000098D5C500F8FF450000B443DB0F494071
:1007B00000003443DB0FC940DB0F49C0DB0FC9C069
:1007C00070B540F25860C2F20000016840F28564E2
:1007D00001310160C2F20004552040F6EC21207086
:1007E000601CC2F200011222FFF7DCFD40F6BC30B3
:1007F000C2F20000006840F21455C4F8130040F241
:10080000A060C2F200008068C2F20005C4F81700C0
:1008100040F614202E78C2F2000021461B2202F07E
:10082000BDFA002E1CBF0020287070BD40F60400E9
:10083000C2F2000000F0A0BC40F66400C2F200006A
:1008400000F09ABC40F6C400C2F2000000F094BC74
:1008500040F24470C2F2000000F08EBC40F624105A
:10086000C2F2000000F088BC40F2A470C2F20000A6
:1008700000F082BC7047000072B600BFFEE70000C7
:1008800090F82020013A012A04D8006800F11402EF
:10089000002004E000F1240201204FF480211368BD
:1008A000194311607047000010B590F820E0D0F8AF
:1008B00000C0AEF1010EBEF1010FDCF808E011D866
:1008C0001EF0E05F14D0CEF301640120A040186058
:1008D0008B689BB1D1F804E0C86840EACE0040EADA
:1008E000030E0FE000F1240301204FF4802121E0EA
:1008F00000F1240301204FF400111BE00868CB68CD
:1009000043EA405E0CF5C07000EB0413240140F88C
:1009100004E00C69184640F8044F097D012903D111
:10092000016841F48071016050680121D86010684D
:10093000986000201A681143196010BD90F82020BB
:10094000013A012A30D8B0B546F20060C4F2000086
:10095000026842F001020260026822F47C520260E6
:10096000D1F814E0CC694A6A0368012C43EA0222F8
:1009700002600EF01F024FF0010303FA02F2C36996
:100980006FEA020C23EA0203C36113D02CBBC368D5
:1009900003EA0C03C360CB688C8844EA034300EB92
:1009A000CE0423640B4611E0416A41F48021416288
:1009B00001207047C3681343C3600B688C8844EA06
:1009C000034300EBCE04236401F10C038C681B8805
:1009D00043EA044300EBCE04636443688D6943EA51
:1009E0000204D1F810E0096A002D08BF03EA0C04E4
:1009F00044604369BEF1000F43EA020408BF03EA02
:100A00000C040129446102D1C1691143C16101682B
:100A100021F0010101600020B0BD0000704700001E
:100A2000B0B590F82040013C012C78D8046800292A
:100A30000CBFE4682469A40777D004684FEA011C5E
:100A400004F5D87555F80C4014F00404946055F87A
:100A50000CE005EB011C19BF4FEADE0555604FEABB
:100A60005E551560DCF80050E64605F00205D560DD
:100A70005EF8044F24075ABFDEF8004004F00F046C
:100A800008241461DEF800400029C4F307249461AF
:100A9000DEF800504FEA15455561DCF808201A7061
:100AA000026802EB0112D2F8B8214FEA12225A7002
:100AB000026802EB0112D2F8B8214FEA12429A7092
:100AC000026802EB0112D2F8B8214FEA1262DA7022
:100AD000026802EB0112D2F8BC211A71026802EB23
:100AE0000112D2F8BC214FEA12225A71026802EBBD
:100AF0000112D2F8BC214FEA12429A71026802EB4D
:100B00000112D2F8BC214FEA1262DA7100680CBF00
:100B100000F10C0100F11001002020220AE000F198
:100B2000240101204FF4802204E000F1240101207F
:100B30004FF400120B681A430A60B0BD90F8201001
:100B40000139012984BF00207047006881688268EC
:100B50008068C1F38061C2F3C0621144C0F30070C9
:100B6000084470472DE9F04F81B00446006846699B
:100B7000D0F804908768D0F80CB0D0F810A0D0F866
:100B80001880F10703D1002530071CD423E0F907B2
:100B900010D00121BA07816009D4780700F1AA803A
:100BA000380700F1B080204600F086FA02E02046C7
:100BB00000F084FA0025F80500F18480F80300F1C4
:100BC000AA80300707D51BF0100004D0206845F438
:100BD00000751021C160700708D51BF0080005D012
:100BE00020680821C160204600F008FAB00706D549
:100BF0002068C068800702D0204600F001FA700625
:100C000007D51AF0100004D0206845F48065102143
:100C10000161B00608D51AF0080005D02068082147
:100C20000161204600F014FAF00606D5206800693C
:100C3000800702D0204600F00DFAB00308D519F065
:100C4000100005D0206810214160204600F004FA11
:100C5000F00308D519F0080005D02068082141608C
:100C6000204600F035FA300440F18F805FEA497089
:100C700040F1888006F4807008EA102028435FEA7B
:100C80008871014648BF41F00201B20558BF0146D4
:100C90005FEA48700D4648BF45F00405700558BF2F
:100CA0000D4630056ED518F070006BD01038000975
:100CB000052862D8DFE800F0035C5659535F45F021
:100CC00008055AE020684FF48071BA0581600AD4A3
:100CD000780512D4380519D4204600F0F1F9F8034C
:100CE0007FF56FAF17E0204600F0ECF9F8037FF5D1
:100CF00068AF10E04FF400655DE705F50055F803B7
:100D00007FF55FAF07E04FF4805554E705F5804568
:100D1000F8037FF556AF20684FF48031BA03816045
:100D20000AD478030FD4380313D4204600F0CCF94A
:100D300030073FF548AF4EE7204600F0C7F93007CF
:100D40003FF541AF47E705F5004530073FF53BAFBD
:100D500041E705F5803530073FF535AF3BE745F016
:100D600080050AE045F0200507E045F0400504E075
:100D700045F0100501E045F480752068816921F097
:100D8000700181612068042141604DB1606A40EAD0
:100D900005012046616201B0BDE8F04FFFF73EBE9D
:100DA00001B0BDE8F08F0000002804BF01207047AB
:100DB000B0B5044690F8200010B9204600F06EF857
:100DC0002068016841F00101016000F053FC054614
:100DD00020684168C90705D100F04CFC401B0B2876
:100DE000F6D310E0016821F00201016000F042FC3E
:100DF000054600BF2068416889070DD500F03AFC20
:100E0000401B0B28F6D3606A052140F40030606275
:100E1000012084F82010B0BD217E0268012922F053
:100E2000800208BF80320260617E0268012922F0E0
:100E3000400208BF40320260A17E0268012922F010
:100E4000200208BF20320260E17E0268012922F000
:100E5000100218BF10320260217F0268012922F0BF
:100E6000080208BF08320260617F0268012922F08F
:100E7000040208BF04320260D4E901C2D4E9033598
:100E800061691A432A431143ACF101021143C16164
:100E900000200121606284F82010B0BD10B586B03A
:100EA000006846F60002C4F2000200219042CDE93B
:100EB0000411CDE90211019156D046F20041C4F26D
:100EC0000001884240F0988040F25C61C2F200016B
:100ED0000A6843F64000C4F20200531C0B6052B98A
:100EE00000210091016841F000710160016801F08A
:100EF0000071009100990021009150F8102C42F0EF
:100F0000080240F8102C50F8100C022200F00800E3
:100F1000009000980320019004900920059040F271
:100F20000040C4F20200CDE9022100F5006001A9F1
:100F300000F0D6FA13200521002200F055FC132002
:100F400000F040FC14200521002200F04DFC14208C
:100F500000F038FC15200521002200F045FC15208A
:100F600000F030FC16243FE043F64000C4F20200DB
:100F70000091016841F080610160016801F08061C9
:100F80000091009940F25C61C2F200010A68531CB2
:100F90000B6052B900210091016841F000710160BD
:100FA000016801F00071009100990021009150F852
:100FB000102C42F0020240F8102C50F8100C00F0F7
:100FC000020000900098602001900220CDE902010B
:100FD000032004900920059040F20040C4F2020072
:100FE00001A900F07DFA402420460521002200F0EE
:100FF000FBFB204600F0E6FB06B010BD704700008A
:1010000010B5044640F2F460C2F2000084420AD1F6
:1010100040F2E052C2F2000202F11C030021FFF78D
:10102000FFFC02F0C3FE40F21C70C2F200008442DA
:1010300018BF10BD40F20462C2F2000202F11C03AC
:101040000021FFF7EDFCBDE8104003F055BA0000A9
:10105000704700007047000070470000B0B50446BC
:1010600090F8200001281DD1022084F8200020687B
:10107000016821F00101016000F0FCFA054600BFA3
:1010800020684068C00713D000F0F4FA401B0B281A
:10109000F6D3606A40F400306062052084F82000D6
:1010A0000120B0BD606A40F4002060620120B0BD44
:1010B00000206062B0BD0000704700007047000073
:1010C0007047000070470000704700007047000044
:1010D0007047000070B5866D044600F0CBFA94F8B6
:1010E0003510022925D105462068216C026822F0BE
:1010F00016020260426922F08002426109B9A16CC5
:1011000019B1016821F008010160016821F00101B5
:10111000016000BF20680068C0070ED000F0AAFA86
:10112000401B0628F6D320206065032084F8350094
:101130000CE080206065012008E0E06D3F2101FAAD
:1011400000F0B060012084F835000020002184F810
:10115000341070BD90F83510022909D1052180F8AE
:1011600035100068016821F001010160002070471E
:101170008021416501207047F0B581B000210091C8
:1011800040F21051C2F200010B68D0E9166148F23A
:10119000B51537680822C1F64E358A403A42A3FB9E
:1011A00005350CD003681C68640708D51C6824F05A
:1011B00004041C60B260426D42F0010242650122EB
:1011C0008A403A4208D003685B691B0604D5B260C6
:1011D000426D42F00202426504228A403A4208D03F
:1011E00003681B689B0704D5B260426D42F004029D
:1011F000426510228A403A4216D001680B681B07EC
:1012000012D5B2600B680A685B0306D4D20506D417
:101210000A6822F008020A6001E011033FD4016C61
:1012200011B1044688472046C26D202101FA02F31D
:101230003B4241D001680F68FF063DD5B36090F88E
:1012400035700B68052F1AD123F016030B604B691C
:1012500023F080034B61036C0BB9836C1BB10B68EB
:1012600023F008030B603F219140B160012180F819
:101270003510016D002280F83420D9BB3EE00A68A9
:101280005B0310D4D20512D40A6822F010020A605F
:10129000012180F83510002180F8341007E0816CBE
:1012A0000029BED1C0E7110301D4416C00E0C16B3D
:1012B00011B1044688472046416DF9B1416DC90717
:1012C00016D0052180F835100168AA0A0B6823F0B2
:1012D00001030B60009B01339342009302D80B681B
:1012E000DB07F7D1012180F83510002180F8341098
:1012F000C16C19B101B0BDE8F040084701B0F0BDC4
:101300002DE9F041044600F0B5F9C4B105460220CC
:1013100084F835000020216884F83400086820F043
:101320000100086020680168C9070BD000F0A2F92D
:10133000401B0528F6D90321202203207AE0012052
:10134000BDE8F081016848F23F02CFF21002D4E913
:10135000013501EA020ED4E9032143EA0E032B43CF
:10136000D4E9056C1A43D4E907781143314341EAC3
:101370000702616A42EA0802042942EA0C0303D127
:10138000D4E90B273A43134303604269042922F04E
:10139000070241EA02012DD1D4E90A5341EA0501CD
:1013A00043B3BCF5005F08D0BCF1000F12D1022D91
:1013B00016D0012D07D09DB119E0032D17D8DFE815
:1013C00005F00B0F0B02A3F1C072B2FA82F25209C0
:1013D0004AB90FE0032D02D2012222B90AE006D158
:1013E000C3F3006232B101214022012022E0002239
:1013F000002AF8D100F0F8024AF6AB23103ACAF6F8
:10140000AA23A2FB033745F62C6341613909C0F6D4
:101410000003595C40F2FF3398435F2A4FF03F02CC
:1014200088BF0430C4E9160102FA01F1816000228C
:1014300001210020626584F83510BDE8F0810000CC
:1014400090F834C0BCF1010F04BF0220704770B5A2
:101450004FF0010C80F834C0D0F858E090F835C057
:10146000BCF1010F37D14FF0020C80F835C04FF0BE
:10147000000CC0F854C0D0F800C08468056CC06D82
:10148000DCF80060402C26F48026CCF80060CCF814
:1014900004300B4604BF13460A463F2101FA00F010
:1014A000CCF80830CCF80C20CEF80800DCF80000AE
:1014B00040F01600CCF800002DB1DCF8000040F040
:1014C0000800CCF80000DCF8000040F00100CCF887
:1014D0000000002070BD002180F83410022070BD93
:1014E0002DE9F04F83B000F1200200F13E4741F6B4
:1014F0000045009207F1FF77C4F2020508224FEA87
:10150000B726A84208BF0722072E38BF4FEAB722E6
:1015100000274FF0000A4FF0000801920AE000BFD8
:1015200008F101080AF1020AB8F1100F07F10407E7
:1015300000F09D800D68012202FA08FC15EA0C09F2
:10154000EED04D68032205F0030BABF10106012E2E
:1015500002FA0AFE10D88668CC6826EA0E0604FA5B
:101560000AF4344384604468C5F3001524EA0C0689
:1015700005FA08F52E434660BBF1030F1BD0C66881
:101580008D6826EA0E0605FA0AF52E43BBF1020F16
:10159000C66010D16FF00302009D02EA580655F8AC
:1015A00006C007F01C040F220B69A2402CEA0202BD
:1015B000A3401A43AA5102684B6822EA0E0203F0C4
:1015C000030606FA0AF6324313F4403F0260A7D03E
:1015D000002243F644030292C4F202031A6843F65F
:1015E000004442F480421A601A68C4F2010402F412
:1015F00080420292029A28F003024FF6084C2244DD
:10160000CFF6FF7C52F80C3007F00C060F25B540E2
:10161000AB43019D05FA06F6334342F80C30A2684D
:101620004B6842EA090643F60C4CDD0258BF22EA39
:101630000906A660C4F2010CDCF800209D0242EA13
:10164000090658BF22EA0906CCF8006062689D03CB
:1016500042EA090658BF22EA090666602268DB03EF
:1016600042EA090658BF22EA0906266058E703B095
:10167000BDE8F08F44F2D470C2F2000000687047F9
:1016800040F2745044F2D471C2F20000C2F2000180
:1016900000780A68104408607047000080B543F67F
:1016A0000040C4F20200016841F400710160016869
:1016B00041F480610160016841F4807101600320A0
:1016C00000F0BEF80F2000F005F800F059F80020F7
:1016D00080BD0000B0B586B0002543F644010195F9
:1016E000C4F202010A68044642F001020A60096875
:1016F00001A801F0010101910199694600F060F92A
:1017000000F092F94DF683614000C4F21B31A0FB5A
:1017100001014FF0FF3000EB914140F684100022B0
:10172000C2F20000C4F2010240F2E733C0E9002136
:10173000C0E902530561856100F0CEFB08B106B037
:10174000B0BD40F68410C2F2000000F0F5FB0028A6
:10175000F5D10546192000F035F80F2C0CD81920CA
:101760002146002200F040F840F27850C2F200001A
:101770000460284606B0B0BD012006B0B0BD000030
:1017800082B0002043F640010190C4F202014A6891
:1017900042F480424A604A6802F480420192019A0F
:1017A00000900868002240F08050086008680F210F
:1017B00000F08050009000986FF0010002B000F03F
:1017C00013B80000002848BF704700F01F01012235
:1017D00002FA01F11C2202EAD0004EF20012CEF20F
:1017E000000281507047000010B54EF60C5CCEF23E
:1017F000000CDCF80030C3F3022E8EF00704042C3A
:1018000028BF0424BEF103034FF0FF3E0EFA04F498
:1018100038BF0023A14399400EFA03F39A431143C2
:1018200000F1604200F00F03090102F56442043B3D
:101830006344002848BF03F10C02117010BD000082
:101840004EF60C51CEF200010A684FF6FF031A4023
:1018500060F30A2242F0806040F0FD70086070473B
:10186000002804BF012070472DE9F04143F6080825
:10187000C4F202080446D8F8F8030D4600F0070049
:10188000884207D288F8F853D8F8F80300F0070028
:10189000A84276D12068810717D5410705D5D8F829
:1018A000001041F4E051C8F80010010705D5D8F840
:1018B000001041F46041C8F80010D8F80010A26888
:1018C00021F0F0011143C8F80010C0073FD1D8F84B
:1018D000F80300F00700A84207D988F8F853D8F8B1
:1018E000F80300F00700A8424BD12068410707D554
:1018F000D8F80010E26821F4E0511143C8F8001054
:10190000000708D5D8F80000216920F4604040EABB
:10191000C100C8F8000000F09BF8D8F8001045F6A8
:10192000E452C1F30311C0F60002515C40F21052C0
:1019300020FA01F140F27850C2F200000068C2F2D1
:1019400000021160FFF7C6FE0020BDE8F08160686C
:10195000811E022907D258F8081C89015CBF0120AA
:10196000BDE8F08110E0012807D158F8081C890370
:101970005CBF0120BDE8F08106E058F8081C89072B
:1019800002D40120BDE8F081D8F8001021F0030155
:101990000843C8F80000FFF76DFE064641F288379D
:1019A000D8F80000616800F00C00B0EB810F8ED019
:1019B000FFF760FE801BB842F2D90320BDE8F0813A
:1019C0000F22026043F60802C4F20202136803F019
:1019D00003034360136803F0F0038360136803F4A8
:1019E000E053C360D2F800C04FF4E05303EADC03D5
:1019F0000361D2F8F80300F00700086070470000A8
:101A000040F2105043F60801C2F20000C4F2020195
:101A10000068096845F6F452C1F38221C0F600025D
:101A2000515CC8407047000040F2105043F6080176
:101A3000C2F20000C4F202010068096845F6F452DF
:101A4000C1F34231C0F60002515CC840704700004B
:101A500010B543F60404C4F20204606800F00C0000
:101A600008280AD0042819BF42F20040C0F2F4004E
:101A700041F60030C0F2B70010BD2068216823682D
:101A8000490241F60031C0F2B70100F03F02C3F352
:101A900088105CBF42F20041C0F2F401A1FB0001DA
:101AA0000023FEF707FC21680222C1F3014102EB8B
:101AB0004101B0FBF1F010BD002804BF01207047C8
:101AC0002DE9F04182B00446007843F60006C007D5
:101AD000C4F2020649D0B06800F00C00042809D115
:101AE0003068800341D5606800283ED1012002B0F3
:101AF000BDE8F081B06800F00C00082802D17068E1
:101B00004002EDD465683068B5F5A02F05D0B5F575
:101B1000803F09D140F480300CE040F480203060F8
:101B2000306840F4803005E020F480303060306868
:101B300020F480203060FFF79DFD002D054611D078
:101B40003068800311D4FFF795FD401B6428F7D956
:101B500028E100BFFFF78EFD401B64284FF0030013
:101B600000F2E08030688003F4D4207880071BD531
:101B7000B06810F00C0F09D0B06800F00C00082815
:101B800040F085807068400200F1818030688007F5
:101B900003D5E068012840F09A803068216920F080
:101BA000F80040EAC10030602078000734D4207883
:101BB000400746D4A5695DB3B06800F00C00082862
:101BC00040F09C80012D00F082807068E16900F493
:101BD00080028A427BD1216A00F03F028A4276D19C
:101BE00047F6C071626A0140B1EB821F6FD1A16AF2
:101BF0004FF6FF73C903994300F44032A1F58031D9
:101C00008A4264D1E16A00F07060B0EB016F5ED18E
:101C1000002002B0BDE8F081606900285BD00020A0
:101C2000C4F247200121C0F8801EFFF723FD0546BE
:101C3000706F8007BBD4FFF71DFD401B0228F7D94A
:101C4000B0E0306C5FEAC0080AD400200190306C2C
:101C500040F080503064306C00F08050019001986A
:101C600047F20007C4F200073868C00526D4386878
:101C700040F480703860FFF7FDFC05463868C00509
:101C80001CD4FFF7F7FC401B0228F7D98AE0E06874
:101C9000002840F20000C4F2472053D00121016027
:101CA000FFF7E8FC054600BF306880073FF575AFD9
:101CB000FFF7E0FC401B0228F6D973E0A568306FFF
:101CC000052D51D0012D56D140F0010059E00120E1
:101CD00002B0BDE8F0810020C4F247200021C0F826
:101CE000801EFFF7C7FC0546706F80077FF55FAF6A
:101CF000FFF7C0FC401B0228F6D953E00027C4F2CE
:101D0000472700203866FFF7B5FC022D05460DD1A8
:101D1000306880015DD5FFF7ADFC401B02284FF015
:101D20000300F5D902B0BDE8F08100BF3068800142
:101D30007FF56EAFFFF79EFC401B02284FF00300BB
:101D4000F4D9EFE700210160FFF794FC054600BFDE
:101D5000306880077FF528AFFFF78CFC401B022816
:101D60004FF00300F4D9DDE740F004003067306F36
:101D700040F0010005E020F001003067306F20F0F6
:101D800004003067FFF776FC002D054641F28837E6
:101D900013D000BF306F800712D4FFF76BFC401BDD
:101DA000B842F7D9032002B0BDE8F081FFF762FC2A
:101DB000401BB8424FF00300B4D8306F8007F5D411
:101DC000B8F1000F3FF5F6AE306C20F08050306473
:101DD000F0E604F11C052FCD084340EA8210D90338
:101DE0004FF6FF729143A1F5803140EA0560084348
:101DF000706001203866FFF73DFC044630688001C2
:101E00003FF506AFFFF736FC001B02284FF003003A
:101E1000F4D987E7704700007047000090F83C2035
:101E2000012A4FF0020255D010B5012380F83C3052
:101E300080F83D200268D2F804E0D2F808C00C68AF
:101E40002EF07003234341F2FF74C4F20004A24257
:101E500053600DDC40F2FF73C4F200039A4215DCBC
:101E6000B2F1804F29D040F20043C4F2000322E0D7
:101E700040F2FF33C4F201039A4212DC41F6000340
:101E8000C4F200039A4218D0002312E040F6000387
:101E9000C4F200039A4210D040F60043C4F200039B
:101EA00009E044F20003C4F201039A4205D040F273
:101EB0000043C4F201039A4204D149682CF0800324
:101EC000194391600121002280F83D1080F83C20E8
:101ED000BDE8104010467047002804BF012070473D
:101EE00010B5044690F83D0028B9002084F83C0065
:101EF000204600F01FF8022084F83D002068211DD4
:101F000001F0F8FA012084F8460084F83E0084F8D5
:101F10003F0084F8400084F8410084F8420084F8CF
:101F2000430084F8440084F8450084F83D00002014
:101F300010BD00007047000090F83D1001291CBF43
:101F400001207047022180F83D10006841F2FF72C5
:101F5000C168C4F20002904241F00101C1600DDC91
:101F600040F2FF71C4F20001884215DCB0F1804FED
:101F700029D040F20041C4F2000122E040F2FF31DA
:101F8000C4F20101884212DC41F60001C4F20001F2
:101F9000884218D0002112E040F60001C4F200018E
:101FA000884210D040F60041C4F2000109E044F23A
:101FB0000001C4F20101884205D040F20041C4F2A0
:101FC0000101884206D1816801F00701062904BF9A
:101FD00000207047016841F0010101600020704756
:101FE0007047000070B504460068C5680669B1070F
:101FF00016D515F0020113D06FF002010161012125
:1020000021778069800703D02046FFF7E9FF05E0CC
:10201000204600F08DF8204600F0EAF900202077F5
:10202000700718D515F0040015D020686FF0040172
:10203000016102212177806910F4407F03D020469E
:10204000FFF7CEFF05E0204600F072F8204600F0D2
:10205000CFF900202077300717D515F0080014D0ED
:1020600020686FF00801016104212177C0698007B1
:1020700003D02046FFF7B4FF05E0204600F058F8F3
:10208000204600F0B5F900202077F00618D515F0AD
:10209000100015D020686FF0100101610821217730
:1020A000C06910F4407F03D02046FFF799FF05E098
:1020B000204600F03DF8204600F09AF900202077F5
:1020C000F00718BF15F0010002D1300609D412E064
:1020D00020686FF001010161204600F033FA3006FC
:1020E00009D515F0800006D020686FF080010161ED
:1020F0002046FFF78FFE700609D515F0400006D088
:1021000020686FF040010161204600F025FAB0061A
:1021100058BF70BD15F0200008D021686FF0200274
:1021200020460A61BDE87040FFF776BE70BD000032
:102130007047000090F83C30012B04BF022070472C
:102140004FEAB2020123032A80F83C3000F2F88003
:102150002DE9F043DFE802F002AF3D7D036840F275
:1021600000461C6A1A6A24F0020422F001021A6274
:102170001A46D3F804C052F818EF8F6843F480650C
:10218000C4F20106B54244EA070405D1CF6824F041
:102190000C0427F004073C430F68B54206D1D1E98F
:1021A00005582CF440762E4346EA080C2EF07306B0
:1021B0003743C3F804C09F614F6809695F631C62BD
:1021C0009F6947F008079F619F6927F004079F6197
:1021D000B0E0036840F200481C6A1A6A24F40074F4
:1021E00022F480721A621A46D3F804C052F81CEF27
:1021F0008F6843F48065C4F20108454544EA07242A
:1022000008D1CF6840F2FF463F0224F4406427EA39
:1022100006063443D1F80090454506D1D1E905566C
:102220002CF440572E4347EA061C2EF0730747EA6A
:102230000907C3F804C0DF614F680969DF631C62E6
:10224000DF6947F00807DF61DF6927F00407DF6116
:1022500070E0036840F20045D3F820C01A6A43F4E6
:10226000806722F480521A621A465C6852F81C8F0A
:10227000D1F800E08E68C4F20105AF4204D14D6987
:1022800024F4804444EA85142CF4005747EA0637C6
:1022900028F4E64646EA0E265C60DE614E6809696F
:1022A0001E641F62DF6947F40067DF61DF6927F49E
:1022B0008067DF613DE0036840F200481C6A1A6AEB
:1022C00024F0200422F010021A621A46D3F804C047
:1022D00052F818EF8F6843F48065C4F20108454551
:1022E00044EA071407D1CF686FF0400624F0C00419
:1022F00006EA07163443D1F80090454506D1D1E9E6
:1023000005562CF440672E4347EA860C2EF4E64728
:1023100047EA0927C3F804C09F614F6809699F63B2
:102320001C629F6947F400679F619F6927F480677B
:102330009F6109021368194300231160BDE8F0434F
:10234000002180F83C10184670470000002804BFA8
:102350000120704710B5044690F83D0028B90020D0
:1023600084F83C00204600F01FF8022084F83D006D
:102370002068211D01F0BEF8012084F8460084F891
:102380003E0084F83F0084F8400084F8410084F85F
:10239000420084F8430084F8440084F8450084F83F
:1023A0003D00002010BD0000006840F60001C4F2AE
:1023B0000001884218BF704780B582B000200190AC
:1023C00043F64000C4F202000168002241F004011B
:1023D00001600068052100F00400019001981E20B2
:1023E000FFF702FA1E2002B0BDE88040FFF7EAB90D
:1023F0007047000002464120082908BF40200429F8
:1024000008BF3F20002908BF3E20105C01281CBFE8
:1024100001207047022041B1082909D0042914BFC6
:1024200082F8410082F83F0004E082F83E0001E0BB
:1024300082F8400080B54FEAB103032B11D845F66E
:10244000FC5CD2F800E0C0F6000C5CF823C0DEF8BB
:102450000C0040EA0C00CEF80C000020032B03D93E
:1024600080BD0120032BFBD8126801F01F014FF043
:10247000010C136A0CFA01F18B431362136A0B43CC
:1024800041F2FF71C4F200018A4213620BDC40F298
:10249000FF71C4F200018A4213DCB2F1804F45D0D3
:1024A00040F2004115E040F2FF3CC4F2010C6245ED
:1024B00014DC41F60003C4F200039A4236D0002334
:1024C00014E040F60001C4F200018A422ED040F62A
:1024D0000041C4F200018A4228D02DE044F20003FA
:1024E000C4F201039A4221D040F20043C4F2010336
:1024F0009A4221D1536C8A4243F400435364C6DDAF
:10250000624507DC41F60001C4F200018A420DD0A9
:10251000002107E044F20001C4F201018A4205D023
:1025200040F20041C4F201018A4205D1916801F0F4
:102530000701062908BF80BD116841F00101116043
:1025400080BD000000680021C4F20101884218BF6C
:102550007047FFF795B800007047000090F84230D0
:10256000202B07D100294FF0010318BF002A04D106
:1025700018467047022318467047B0B582B0012351
:10258000002503634563044601F0E2F9216B012352
:10259000012912D1019521680A68019249680191C7
:1025A000019900BF216851E8031F226841F0100122
:1025B00042E80313002BF5D1034602B0BDE8B0405A
:1025C0001846704790F84230202B1CBF02207047FD
:1025D00000294FF0010318BF002A01D118467047A7
:1025E000036300234363816222218285C2854364A1
:1025F00080F84210016921B10168CA6842F4807212
:10260000CA6001684A6942F001024A61CA6842F040
:102610002002CA60026B012A1CBF0120704781B0F2
:10262000002200920A68009249680091009900BF58
:10263000016851E8031F026841F0100142E80313EA
:10264000002BF5D1002301B01846704710B5006883
:1026500041F20001C4F20101884225D044F6000194
:10266000C4F20001884218BF10BD40F6C430C2F267
:102670000000006840F6C031C2F2000140F6EC24D0
:10268000086040F21850C2F20004C2F20000214675
:1026900002F0B2F840F65C20C2F20000214612229D
:1026A000BDE81040FFF78EBF40F6142040F2806175
:1026B000C2F20000C2F200010522FFF74FFFBDE8A1
:1026C0001040FEF721B8000010B582B0044600F0BB
:1026D0002BF8000726D5206841F20001C4F2010161
:1026E000884213D044F60001C4F20001884219D197
:1026F0000020019040F65C20C2F2000000680168F2
:10270000019140680190019802B010BD0020009036
:1027100040F61420C2F20000006801680091406891
:102720000090009802B010BD406C7047B0B582B008
:1027300001680A68CC684B6902F02F05202D04F06F
:10274000200505D125B102B0BDE8B04001F030B898
:102750005FEA027C1EBF03F0010E04F4907313EBDA
:102760000E0340D1036BD50618D5012B16D114F0FA
:10277000100313D0002201920A6801924A68019264
:10278000019A4969490647D4818DC28DC38D002BBA
:1027900018BF914240F01A8102B0B0BD13062AD58D
:1027A00014F0800327D090F84120212AF4D18268C8
:1027B000B2F5805F03D10269002A00F03A81026A13
:1027C000531C036212784A60C28C013A1304C2841B
:1027D000E2D1C86820F08000C860C86840F04000BE
:1027E000C86002B0B0BDD10718BF14F4807167D1C2
:1027F00051076BD471E05206CED514F04002CBD015
:10280000CA6822F04002CA60202180F8411002B05C
:10281000BDE8B04000F00CBBC26B116849688BB2D8
:10282000002B42D0858DAB423FD2C185D169B1F535
:10283000807F33D0016851E8031F026821F4807162
:1028400042E80313002BF5D1016851E8051F026827
:1028500021F0010142E80513002BF5D1016851E890
:10286000051F026821F0400142E80513002BF5D155
:10287000202180F842100021016300BF016851E867
:10288000031F026821F0100142E80313002BF5D169
:10289000C16B04460846FEF71DFC20460221416339
:1028A000818DC28D891A89B2B9E0818D99427FF4F8
:1028B00073AFD269B2F5807F7FF46EAF0222ADE0D4
:1028C000416C41F001014164510706D5BEF1000F92
:1028D00003D0416C41F002014164910706D5BEF17D
:1028E000000F03D0416C41F004014164BCF1000FC2
:1028F00006D55EEA050103D0416C41F00801416450
:10290000416C00293FF448AF910604D51DB104463F
:1029100000F04EFF204601684969426C01F0400119
:1029200002F0080289184AD0016851E8031F0268C2
:1029300021F4907142E80313002BF5D1016851E8AE
:10294000051F026821F0010142E80513002BF5D1B3
:10295000016B01290AD100BF016851E8031F026819
:1029600021F0100142E80313002BF5D1202180F85B
:1029700042100021016301684969490654D500BF2E
:10298000016851E8051F026821F0400142E8051383
:10299000002BF5D1C16B002946D043F22162C0F66D
:1029A0000002044608460A65FEF7D4FB00283FF4FF
:1029B000F3AEE06B016D02B0BDE8B04008470446DD
:1029C000FFF782FE0020606402B0B0BD891A00BF2C
:1029D000026852E8032F036822F4907243E803254B
:1029E000002DF5D1026852E8052F036822F001029C
:1029F00043E80525002DF5D1202280F84220002251
:102A0000026300BF026852E8032F036822F010023D
:102A100043E80325002DF5D1022289B2426302B0BA
:102A2000BDE8B040FFF712BE02B0BDE8B040FFF70E
:102A30004BBE026A32F8023B6FF35F234B600262C7
:102A4000C2E60000002804BF0120704710B504460C
:102A500090F8410028B9002084F84000204600F09A
:102A600021F8242084F841002068C16821F4005135
:102A7000C160204600F0FCFE2068016921F490410D
:102A80000161416921F02A014161C16841F40051AD
:102A9000C16000202021606484F8411084F8421055
:102AA000606310BD2DE9F04F87B00446006844F61E
:102AB0000001C4F2000100268842CDE90566CDE997
:102AC0000366029600F0F28041F20041C4F2010177
:102AD000884200F0838041F20001C4F20101884283
:102AE00040F05481002743F630000197C4F2020001
:102AF0004169002541F0100141614169C4F20205BC
:102B000001F01001019101990197016802AE41F0B5
:102B100002010160016846F2280801F002010191FA
:102B20000199019701684FF0020941F0010101602C
:102B300000684FF0030A00F0010001900198802026
:102B400002904FF0070B05F580603146C4F2020891
:102B5000CDE90397CDF814A0CDF818B0FEF7C0FC6E
:102B60004FF40070CDE9020904A880E8800C2846E3
:102B70003146FEF7B5FC40F2447508F58360C2F2B9
:102B800000054FF000664FF4806985E8C1002846D3
:102B9000C5E90379C5E90577C5E907776F62FEF7EF
:102BA000AFFB002818BFFDF767FEE563AC6340F29A
:102BB000A47508F59260C2F200054021C5E900063F
:102BC00005F1080080E882022846C5E90577C5E9D5
:102BD00007776F62FEF794FB2526C7E043F63000C7
:102BE0000196C4F20200416946F2280841F0200132
:102BF00041614169C4F2020801F02001019101998B
:102C00000196016841F040010160006802A900F0EE
:102C10004000019001984FF4844002900220CDE9D9
:102C2000030603200590082006900020C4F202004D
:102C300000F5C050FEF754FC40F6241508F58F60EF
:102C4000C2F200054FF020674021C5E9000705F1F9
:102C500008004FF4806980E842022846C5E905660D
:102C6000C5E907666E62FEF74BFB002818BFFDF74B
:102C700003FEA563AC6340F6C40508F58060C2F2AC
:102C80000005C5E900072846C5E90266C5E90496BE
:102C9000C5E90666C5E90866FEF732FB4726002847
:102CA0004FF03C0768D0FDF7E7FD65E043F63000E4
:102CB0000196C4F20200016946F2280841F480211D
:102CC00001610169C4F2020801F4802101910199B6
:102CD0000196016841F004010160006802A900F05A
:102CE0000400019001984FF4406002900220CDE969
:102CF000030603200590072006900020C4F202007E
:102D000000F50060FEF7ECFB40F60405C2F200059A
:102D10004FF000674FF480692846C5E90087C5E990
:102D20000266C5E90496C5E90666C5E90866FEF7C8
:102D3000E7FA002818BFFDF79FFDE563AC6340F696
:102D4000640508F13000C2F200054021C5E9000722
:102D500005F10800002280E806022846C5E90522A0
:102D6000C5E907226A62FEF7CBFA272600284FF052
:102D7000380718BFFDF780FD304605210022E551D8
:102D8000AC63FEF731FD3046FEF71CFD07B0BDE831
:102D9000F08F00007047000070470000B0B590F859
:102DA0004140202C1CBF0220B0BD134600294FF02B
:102DB000010218BF002B01D11046B0BD4FF0000C2E
:102DC000212401628384C384C0F844C080F8414058
:102DD00002680446806B43F2697E43F2A975C0F62F
:102DE000000EC0F60005C0E90FE543F22D65C0F600
:102DF00000050432C0E9135CFEF722FB30B110205D
:102E00006064202084F841000120B0BD20686FF08C
:102E100040010160206850E8050F216840F0800003
:102E200041E80502002AF5D100221046B0BD00009D
:102E30007047000070470000FEE7000080B540F2D8
:102E4000F46046F20041C2F20000C4F20001032225
:102E5000002380E80E0000F10C014FF4002C4FF429
:102E6000401E81E8085083618383FDF79DFF0028A1
:102E700008BF80BDBDE88040FDF7FEBC80B540F2D4
:102E80001C7046F60001C2F20000C4F200010322E9
:102E9000002380E80E0000F10C014FF4002C4FF4E9
:102EA000401E81E8085083618383FDF77DFF002881
:102EB00008BF80BDBDE88040FDF7DEBC80B582B0B4
:102EC000002043F630010190C4F202010A6842F486
:102ED00080020A600A6802F480020192019A00905E
:102EE0000868002240F4001008600868052100F41A
:102EF0000010009000980C20FEF776FC0C20FEF7E6
:102F000061FC0E2005210022FEF76EFC0E20FEF76C
:102F100059FC392005210022FEF766FC3920FEF716
:102F200051FC3A2005210022FEF75EFC3A20FEF714
:102F300049FC452005210022FEF756FC4520FEF7FE
:102F400041FC462005210022FEF74EFC462002B03F
:102F5000BDE88040FEF736BC80B5A4B035481EAF52
:102F60001D9034A000F1040E9EE80E50806987E8A1
:102F70000E5023901DA8002101F0C6FC40F2F06124
:102F8000C2F20001324A086031A000F1040E16922C
:102F90009EE80E50806917AF87E80E501C9016A867
:102FA000002101F0B1FC40F22C61C2F200012F4A75
:102FB00008602EA000F1040E0F929EE80E5080696A
:102FC00010AF87E80E5015900FA8002101F09CFC6F
:102FD00040F23061C2F200012B4A08602AA000F1E1
:102FE000040E08929EE80E50806909AF87E80E50E3
:102FF0000E9008A8002101F087FC40F23461C2F273
:103000000001284A086027A000F1040E01929EE802
:103010000E50806902AF87E80E50079001A800218A
:1030200001F072FC40F22861C2F20001086024B095
:1030300080BD00BF5D5E0008E533000800000000B1
:103040000000000080000000000000000000000000
:10305000695E0008E1320008FDFF0000000000008A
:103060000001000000000000000000004E5E0008AB
:1030700055330008FDFF00000000000000020000C2
:103080000000000000000000405E00087905000814
:10309000FDFF000000000000000100000000000033
:1030A00000000000345E0008E5050008FDFF000098
:1030B0000000000080000000000000000000000090
:1030C00081B0002143F630000091C4F20200026892
:1030D00042F002020260026802F002020092009ACC
:1030E0000091026842F040020260026802F0400271
:1030F0000092009A0091026842F0010202600268A8
:1031000002F001020092009A0091026842F0080267
:103110000260026802F008020092009A00910268C0
:1031200042F004020260026802F004020092009A77
:103130000091016841F080010160006800F08000AA
:103140000090009801B0704770B590B040F600054F
:1031500040F6CC10C4F200050024C2F20000A72102
:10316000F9220994CDE90744CDE90544CDE90344AA
:10317000CDE90144C0E90051C0E902420461846123
:10318000FFF7E4F8002818BFFDF776FB40F6CC10F7
:10319000C2F2000008A9CDE90844FEF73FFE00286E
:1031A00018BFFDF769FB40F6CC146020C2F20004A2
:1031B0000190002601A920460822CDE90266059665
:1031C000FEF7B8FF002818BFFDF756FB20680F96E2
:1031D000A842CDE90D660C960B9601D010B070BDDB
:1031E000002043F630010A90C4F202010A6842F05E
:1031F00008020A60096801F008010A910A994FF46F
:1032000080410B910221CDE90C10CDE90E0105F5AD
:1032100001300BA9FEF764F910B070BD80B540F61F
:10322000142041F20001C2F20000C4F201010023A7
:103230004FF00C0C4FF4E12280E80E00C0E903339C
:10324000C0E905C3C361FFF7FDFB002808BF80BDCF
:10325000BDE88040FDF710BB10B540F65C2044F699
:10326000000C48F2A062C2F20000C4F2000CC0F2EE
:1032700001024FF4805300214FF4806E0C24C0E90A
:1032800000C2C0E90231C0E904E4C0E90611FFF759
:10329000D9FB002808BF10BDBDE81040FDF7ECBA0F
:1032A00080B540F6A42041F20041C2F20000C4F211
:1032B000010100234FF00C0C4FF4E13280E80E00C6
:1032C000C0E90333C0E905C3C361FFF7BBFB0028B6
:1032D00008BF80BDBDE88040FDF7CEBAFEE7000024
:1032E00001F06AF8012001F001FBF9E7FEE70000B8
:1032F000EFF30980BFF36F8F154B1A681EF0100FA4
:1033000008BF20ED108A20E9F04F10602DE9090078
:103310004FF0500080F31188BFF34F8FBFF36F8FD2
:1033200001F0DCFE4FF0000080F31188BDE80900D9
:1033300019680868B0E8F04F1EF0100F08BFB0EC35
:10334000108A80F30988BFF36F8F704700BF00BFFA
:10335000000B002040F6C434C2F20004B7EE008A2D
:1033600094ED000A30EE080A84ED000A00F088FDB2
:10337000012001F0BBFAF3E780B5FDF721FA40F632
:103380005C2040F6EC21C2F20000C2F200011222E1
:10339000FFF718F940F6142040F28061C2F20000F5
:1033A000C2F200010522FFF7D9F8BDE88040FDF721
:1033B000ABB90000000000000000000000000000A9
:1033C000074B19680868B0E8F04F80F30988BFF32D
:1033D0006F8F4FF0000080F31188704700BF00BF6F
:1033E000000B0020012001F081FAFBE780B54FF0CF
:1033F000500080F31188BFF36F8FBFF34F8F02F03F
:103400001DF830B14EF60450CEF200004FF080515E
:103410000160002080F3118880BD000070B592B07B
:1034200006AC20463021FDF734F8002543F6400075
:103430000595CDE90355CDE901550095C4F202008B
:103440000168022641F080510160006800F0805060
:103450000090009847F200000095C4F20000016857
:1034600041F480410160006800F4804000900098C1
:10347000012006904FF4803007904FF480000D90AB
:1034800006200E90A820CDE90F06042011902046BA
:103490000C96FEF711FB10B172B600BFFEE70F20CD
:1034A000CDE901064FF4A05004904FF480500590F0
:1034B00001A805210395FEF7D3F910B172B600BF3C
:1034C000FEE712B070BD00004EF68850CEF200004C
:1034D000016841F4700101607047000040F68410FB
:1034E000C2F20000FEF77EBD40F6CC10C2F2000032
:1034F000FEF778BDB0B540F6FF3E0568C4F2000E99
:1035000040F2004C7045C4F2010C0FDCB0F1804F6A
:1035100019D040F20043C4F20003984213D040F6A1
:103520000003C4F2000398420DD011E040F60043BE
:10353000C4F20003984206D0604504D00023C4F2D0
:103540000103984204D14B6825F0700243EA02055A
:1035500041F6FF73C4F2000398420FDC704521DC92
:10356000B0F1804F41D040F20043C4F200039842D2
:103570003BD040F60003C4F2000334E043F6FF738F
:10358000C4F2010398421EDC42F20003C4F20003BD
:1035900098422AD00023C4F20103984225D0604506
:1035A00023D027E040F60043C4F2000398421CD029
:1035B00041F60003C4F20003984216D041F60043DE
:1035C000C4F200030FE044F20003C4F20103984286
:1035D0000BD044F60003C4F20103984205D044F234
:1035E0000043C4F20103984204D1CB6825F4407231
:1035F00043EA02050A688C684B69C46240F480643F
:103600008262644504BF09690163026825F0800194
:1036100042F0040219430260012242610160B0BD20
:10362000806B0021C185FFF74FB80000806B0168F7
:10363000496990F84120212A11D111F080010ED062
:103640000021C184016851E8031F026821F0C00114
:1036500042E80313002BF5D1202180F841100168C6
:10366000496990F84220222A2BD111F0400128D03C
:103670000021C185016851E8031F026821F490719F
:1036800042E80313002BF5D1016851E8051F0268D9
:1036900021F0010142E80513002BF5D1016B01294E
:1036A0000AD100BF016851E8031F026821F0100130
:1036B00042E80313002BF5D1202180F842100021AD
:1036C0000163416C41F010014164FEF7FDBF000051
:1036D0000168806B0968C90530D40021C18500BF2D
:1036E000016851E8031F026821F4807142E8031366
:1036F000002BF5D1016851E8051F026821F0010196
:1037000042E80513002BF5D1016851E8051F026856
:1037100021F0400142E80513002BF5D1202180F86B
:103720004210016B012909D1016851E8031F0268A9
:1037300021F0100142E80313002BF5D10021416371
:10374000016B012918BFFFF725BB818DFEF77EBFF6
:10375000806B01214163016B012918BFFFF71CBB7E
:10376000818D4908FEF772BF0168806B0968C90541
:1037700048BFFFF75DBB0021C18400BF016851E86D
:10378000051F026821F0800142E80513002BF5D1E6
:10379000016851E8031F026841F0400142E8031349
:1037A000002BF5D170470000806BFFF743BB000092
:1037B00090F84210222918BF70478268B2F5805FE6
:1037C00002D1016900294AD0816AB2F5805F07D031
:1037D0000AB9026922B10268526802F07F0201E070
:1037E000026852680A70816A01318162C18D0139B3
:1037F0000A04C18500D070470168CA6822F020021F
:10380000CA60CA6822F48072CA604A6922F0010262
:103810004A61202180F8421000214163026B012A95
:1038200018BFFFF7B7BA81B0016300BF016851E864
:10383000031F026821F0100142E80313002BF5D1A9
:1038400001680A68D20606D5002200920A68009232
:10385000496800910099818D01B0FEF7F7BE0168BB
:10386000826A49686FF35F2122F8021B8262BDE71A
:10387000B0B50446006804F108030ECB056919438E
:1038800025F440552A4302616269E3691143C26825
:10389000194349F20C639A431143C1604169A2691B
:1038A00021F4407141F20043114340F48062C4F2BC
:1038B00001039A42416102D1FEF7B6F801E0FEF73A
:1038C0009FF8E1694FF69C7563681922C0F6FF7591
:1038D000B1F5004FA0FB02011CD15A00DB0FFCF731
:1038E000E9FC48F21F51C5F2EB11A0FB01235A0974
:1038F00005F1805302FB0300322303EBC000A0FB61
:1039000001014FF4F87000EA111000EB0210C1F34E
:10391000421118E09A009B0FFCF7CCFC48F21F51B3
:10392000C5F2EB11A0FB01235A0902FB050032236B
:1039300003EB0010A0FB0101F02000EA511000EBA6
:103940000210C1F34311084421688860B0BD000033
:10395000F0B581B013460027044681628385476431
:10396000222084F84200E06B43F2D16543F25176A5
:103970000A462168C0F60005C0F60006C0E90F56E9
:1039800043F22D66C0F600060431C0E91367FDF767
:1039900057FD38B110206064202084F842000120D7
:1039A00001B0F0BD00972068016800914068009068
:1039B0000098206950B100BF206850E8030F2168CB
:1039C00040F4807041E80302002AF5D1206850E8F5
:1039D000050F216840F0010041E80502002AF5D1F9
:1039E000206850E8050F216840F0400041E80502DA
:1039F000002AF5D1002001B0F0BD000040F61420EF
:103A0000C2F20000FEF792BE40F65C20C2F2000057
:103A1000FEF78CBE40F6A420C2F20000FEF786BE80
:103A2000FEE7000070B52DED0E8B40F21854C2F287
:103A30000004207A032840F0C08094ED0B0A94ED36
:103A4000101A9FEDD43A9FEDD49A94ED112A21EEED
:103A5000031A20EE090A40F2706630EE010A22EEE7
:103A6000031A40F2A065C2F200069FEDCCAA31EE27
:103A7000000AC2F2000596ED031A85ED020A20EE57
:103A80000A0A94ED07BA30EE010A01F047FEB0EEE3
:103A9000408A95ED020A96ED031A20EE0A0A94ED8B
:103AA00008CA30EE010A01F039FF2CEE000A2BEEB5
:103AB000081A31EE00BA95ED020A96ED031A94ED5C
:103AC0000C2A94ED0E3A20EE0A0A30EE010A32EE8C
:103AD00003CA01F023FE94ED0D1A94ED0F2AB0EE07
:103AE000408A95ED020A31EE02DA96ED031A20EED5
:103AF0000A0A30EE010A01F011FF2DEE000A2CEE49
:103B0000081A9FEDA7CA31EE000A20EE0C0A2BEE30
:103B1000091A31EE000A85ED000A95ED020A96EDCC
:103B2000031A20EE0A0A94ED07BA30EE010A01F0FA
:103B3000F5FEB0EE408A95ED020A96ED031A20EEEE
:103B40000A0A94ED08DA30EE010A01F0E7FD2DEEE5
:103B5000000A2BEE081A30EE41BA95ED020A96EDF6
:103B6000031A94ED0C2A94ED0E3A20EE0A0A30EE78
:103B7000010A32EE03DA01F0D1FE94ED0D1A94ED54
:103B80000F2AB0EE408A95ED020A31EE02EA96ED78
:103B9000031A20EE0A0A30EE010A01F0BFFD2EEEF4
:103BA000000A2DEE081A30EE410A20EE0C0A2BEE28
:103BB000091A30EE010A85ED010A207A012840F049
:103BC000DB8094F84C1094F84E2000201143A0653F
:103BD0003AD194ED0C0A94ED0E2A94ED074A30EE9A
:103BE000020A9FED6F2A9FED6C6A94ED0D1A94ED19
:103BF0000F3A84F84E0094ED085A20EE020A24EEA3
:103C0000064A40F2A06540F2706034EE000AC2F24B
:103C1000000531EE031AC2F2000021EE021A25EE71
:103C2000062A85ED000A90ED030A40F23040DFEDF0
:103C30005E0A32EE011AC2F2000085ED011A00F0B0
:103C400017FD85ED020A97E094ED120A9FED511AD7
:103C500040F2A06540F2706620EE010AC2F2000553
:103C6000C2F2000685ED020A96ED030A9FED4D9A19
:103C700094ED07AA30EE090A84F84F0001F04EFDDA
:103C8000B0EE408A96ED030A94ED08BA30EE090AC8
:103C900001F044FE2BEE000A2AEE081A31EE00AACB
:103CA00094ED0C0A94ED0E1A96ED032A30EE01BA4B
:103CB00032EE090A01F032FDB0EE408A94ED0D0AB1
:103CC00094ED0F1A96ED032A30EE01CA32EE090A7E
:103CD00001F024FE2CEE000A2BEE081A9FED30BAFC
:103CE0009FED2DCA31EE000A20EE0B0A2AEE0C1AC7
:103CF00031EE000A85ED000A96ED030A94ED07AA5D
:103D000030EE090A01F00AFEB0EE408A96ED030A91
:103D100094ED08DA30EE090A01F000FD2DEE000AFC
:103D20002AEE081A30EE41AA94ED0C0A94ED0E1A10
:103D300096ED032A30EE01DA32EE090A01F0EEFDCB
:103D4000B0EE408A94ED0D0A94ED0F1A96ED032A19
:103D500030EE01EA32EE090A01F0E0FC2EEE000A34
:103D60002DEE081A30EE410A20EE0B0A2AEE0C1A4C
:103D700030EE010A85ED010A207A022807D1A06DF4
:103D8000002804BF0020A4F84E000120A065BDEC6F
:103D90000E8B70BD00401C45003C0B46A630E7383A
:103DA00000803B45711B8D3E0000000040F2E0505A
:103DB000C2F200000168A1F20121032988BF704707
:103DC000DFE801F002230D18818BC9BA00EE101A4A
:103DD00040F20001B8EEC00AC2F200011FE0818B80
:103DE000C9BA00EE101A40F21821B8EEC00AC2F2A9
:103DF000000114E0818BC9BA00EE101A40F22431A0
:103E0000B8EEC00AC2F2000109E0818BC9BA00EE27
:103E1000101A40F20C11B8EEC00AC2F200019FED78
:103E2000151AC28B80EE011A13BA1B0C0B81038C7E
:103E300081ED010ADBBA00EE103AB8EEC00A81ED5E
:103E4000030A9FED0D0AD2BA9FED0C2A90F82200CA
:103E500021EE000A01EE102AB8EEC11A21EE021A74
:103E6000087481ED060A81ED071A81ED080A81EDDB
:103E7000090A704700F8FF450000B4435077D63D6B
:103E800080B500F0EBF840F21850C2F2000090F854
:103E90004E1090F84F20114304BF012180F85610B6
:103EA000017A02293FD1417A02293CD1818840F22E
:103EB0004A52914203D3012180F8521017E040F298
:103EC000B622914203D8012180F853100FE0C18837
:103ED00040F24A52914203D3012180F8541006E087
:103EE00040F2B62291429CBF012180F8551090F813
:103EF000521051B190F8531039B1012180F850108F
:103F0000002180F85610A0F8521090F8541051B1CA
:103F100090F8551039B1012180F85110002180F836
:103F20005610A0F85410FFF77DFD40F2A060C2F2D9
:103F3000000090ED000A90ED011A90ED022A30EE9B
:103F4000413A40F2606033EE023AC2F2000080ED86
:103F5000003A30EE013A40F2646032EE434AC2F277
:103F6000000080ED004A31EE400A40F2686030EE19
:103F7000020AC2F2000080ED000A40F26C6033EEEB
:103F8000020AC2F2000080ED000A80BD2DE9F04374
:103F900081B040F20001C2F20001804640F20C10F4
:103FA00091ED0A0AC2F2000090ED0A1A40F21821BF
:103FB000BDEEC00AC2F2000110EE100ABDEEC10A49
:103FC00091ED0A1A40F22432C2F2000240F2406738
:103FD00010EE101ABDEEC10A92ED0A1AC2F20007E5
:103FE0004FF400763E60002610EE102ABDEEC10AA6
:103FF000C7E9026640F2386610EE103AC2F20006D7
:10400000040A0D0A4FEA122E4FEA132C4FF008094A
:1040100070704046C7F810903470B570F17086F833
:1040200004E0727186F806C0F371FCF787FD88B171
:1040300040F2406140F2386240F6C833C2F20001FB
:10404000C2F20002C2F20003404601B0BDE8F043F4
:10405000FCF72ABC01B0BDE8F083000040F2185024
:10406000C2F2000041889FED737A00EE101AB8EE9C
:10407000400A30EE072AB0EEC20AB2EE0E1AB4EED3
:10408000410A0022F1EE10FAB8BF0122038840F283
:10409000E86C03EE103AB8EE433A33EE075AC2F238
:1040A000000CB0EEC53A8CF80020B4EE413A002284
:1040B000F1EE10FAB8BF0122C38840F2E96C04EEB9
:1040C000103AB8EE444A34EE076AC2F2000CB0EE81
:1040D000C64A8CF80020B4EE414A0022F1EE10FAF4
:1040E000B8BF0122838840F2EA6C00EE903AF8EE05
:1040F000600A70EE871AC2F2000CF0EEE10A8CF84A
:104100000020F4EE410A0022F1EE10FAB8BF0122BD
:10411000438B40F2EB6C02EE903AF8EE622A32EEFC
:10412000877AC2F2000CF0EEC72A00218CF800203A
:10413000F4EE412A40F2EC62F1EE10FAB8BF012130
:10414000C2F200021170817C037D02EE901AF8EE3B
:10415000622AC0ED0C2A02EE903AC27CF8EE622A86
:10416000F1EE622AC0ED0D2A02EE902A90F815C0F9
:10417000F8EE622AF1EE622AC0ED0E2A02EE90CA33
:10418000827DF8EE622AC0ED0F2A02EE902AF8EE48
:10419000622AC17DF1EE622A037AC0ED102A02EE96
:1041A000901AF8EE622A012BC0ED112A0DD1012AD6
:1041B00005D14FF07E528264012280F84C20012903
:1041C00002BF0021816480F84C10DFED1B2AF4EE61
:1041D000410A87EE227AC1EEA21AF1EE10FAB4EE8D
:1041E000414A86EE226ADFED153AB8BFF0EE631A57
:1041F000F1EE10FAB4EE413A85EE225A82EE222A0E
:10420000C0ED071AB8BFB0EE636AF1EE10FAB4EE73
:10421000410A80ED086AB8BFB0EE635A80ED095AD2
:10422000F1EE10FAB8BFB0EE632A80ED0A2A80EDF5
:104230000B7A7047000080C4000025440000000095
:10424000B0B540F6CC15C2F2000528687D21C163E7
:10425000FDF710FA044600BFFDF70CFA001B962884
:10426000FAD328680021C163FDF704FA044600BFB1
:10427000FDF700FA001B9628FAD328687D21C16358
:10428000FDF7F8F9044600BFFDF7F4F9001BB0F59F
:10429000C87FF9D328680021C163FDF7EBF9044614
:1042A000FDF7E8F9001BC828FAD328687D21C1630F
:1042B000FDF7E0F9044600BFFDF7DCF9001B3228EA
:1042C000FAD328680021C163FDF7D4F9044600BF82
:1042D000FDF7D0F9001B3228FAD328687D21C1638D
:1042E000FDF7C8F9044600BFFDF7C4F9001B3228EA
:1042F000FAD328680021C163B0BD0000B0B540F614
:10430000CC15C2F2000528687D21C163FDF7B2F922
:10431000044600BFFDF7AEF9001BB0F5C87FF9D326
:1043200028680021C163FDF7A5F90446FDF7A2F94D
:10433000001B9628FAD328687D21C163FDF79AF9FE
:10434000044600BFFDF796F9001B9628FAD32868AB
:104350000021C163FDF78EF9044600BFFDF78AF91D
:10436000001BC828FAD328687D21C163FDF782F9B4
:10437000044600BFFDF77EF9001B3228FAD32868F7
:104380000021C163FDF776F9044600BFFDF772F91D
:10439000001B3228FAD328687D21C163FDF76AF932
:1043A000044600BFFDF766F9001B3228FAD32868DF
:1043B0000021C163B0BD000070B540F6C430C2F248
:1043C000000090ED000A40F6C030C2F2000040F25A
:1043D000185190ED001AC2F20001097A30EE410A3C
:1043E00040F6BC3040F22434BDEEC00AC2F20000F8
:1043F0000229C2F2000480ED000A5ED010EE100A1D
:10440000C8285ADA40F20005C2F20005B5F90800E2
:1044100000EE100A40F26060C2F20000D0ED000A27
:1044200040F22C00B8EEC00AC2F2000000F020F901
:1044300040F20C16C2F20006B6F9080085ED0A0A31
:1044400000EE100A40F26460C2F20000D0ED000AF3
:1044500040F23810B8EEC00AC2F2000000F008F9CD
:1044600040F21825C2F20005B5F9080086ED0A0AE7
:1044700000EE100A40F26860C2F20000D0ED000ABF
:1044800040F24420B8EEC00AC2F2000000F0F0F89A
:10449000B4F9080085ED0A0A00EE100A40F26C60DB
:1044A000C2F20000D0ED000A40F25030B8EEC00A6F
:1044B000C2F2000000F0DCF811E040F20000C2F2AD
:1044C00000000021816240F20C10C2F20000816203
:1044D00040F21820C2F200009FED060A816240F20D
:1044E000F460C2F2000084ED0A0ABDE87040FFF7F4
:1044F0004DBD00BF0000000040F20462C2F20002A5
:104500001068B0F5627F56D0B0F5227F2BD0B0F5A1
:10451000C47F18BF7047B2F91C10B2F91E30B2F94F
:10452000202000EE101A9FED481A02EE103A03EE1A
:10453000102A40F2AC60B8EEC00AB8EEC22AB8EE5B
:10454000C33AC2F2000020EE010A22EE012A23EE55
:10455000011A8184C384028580ED030A80ED042A58
:1045600080ED051A7047B2F91C10B2F91E30B2F98D
:10457000202000EE101A9FED331A02EE103A03EEDF
:10458000102A40F2AC60B8EEC00AB8EEC22AB8EE0B
:10459000C33AC2F2000020EE010A22EE012A23EE05
:1045A000011A41858385C28580ED000A80ED012ACC
:1045B00080ED021A7047B2F91C30B2F91E10B2F940
:1045C00020209FED1B0A02EE102A9FED1A1AB8EE6A
:1045D000C22A32EE002A9FED193A22EE012A82EE1B
:1045E000033A04EE103AB8EEC44A40F2AC6034EE3E
:1045F000000AC2F2000004EE101A9FED0F5A20EEDE
:10460000010AB8EEC44A80ED060A9FED0D0A34EEA9
:10461000054A24EE011A23EE000A038641868286AB
:1046200080ED071A80ED082A80ED0E0A704700BF62
:10463000000034430AD7233C0000B4420000B443D6
:1046400000000046CDCCCC3D6F12833A40F69C3141
:10465000C2F200014FF0FF40886140F6A420C2F290
:1046600000001C2281EC050AC1ED052AFEF796BB6D
:10467000017890ED111A90ED122A022980ED121A9C
:1046800080ED132AC0ED070A80ED080A0FD001293A
:104690004ED0002950D19FED543A30EEC02AB4EEEE
:1046A000432AF1EE10FA38DD9FED522A3EE090EDFC
:1046B000023A31EE015A90ED034A90ED060A21EEDE
:1046C000033A31EE451A002132EE011A8162D0E937
:1046D0000E2180ED0E1A21EE041AB4EE403A80ED60
:1046E0000C1A33EE011AF1EE10FA80ED0B3AC0E924
:1046F0000F2180ED091A0BDAB1EE400AB4EE403A10
:10470000F1EE10FAD8BF80ED0B0A90ED090A704760
:1047100080ED0B0A90ED090A70479FED343AB4EE34
:10472000432AF1EE10FA03DA9FED312A30EE020A45
:1047300030EEC00A80ED110A90ED112A90ED043A96
:1047400090ED010AB4EE432A20EE020AF1EE10FACF
:1047500080ED0A0A1ADA90ED024A90ED0B5A90EDBC
:10476000063A24EE024A34EE054AB4EE434AF1EE2C
:1047700010FA80ED0B4A11DAB1EE433AB4EE434A37
:10478000F1EE10FAD8BF80ED0B3A09E0B4EE432AFF
:10479000F1EE10FAA4BF0021C16201E080ED0B3AF6
:1047A00090ED033A90ED0B4A32EE412A90ED051A56
:1047B00022EE032A30EE040A32EE000AB4EE410A79
:1047C000F1EE10FA80ED0C2A80ED090A06DAB1EE5E
:1047D000411AB4EE410AF1EE10FA96DC80ED091AA6
:1047E00090ED090A704700BF00003443000034C355
:1047F0000000B4C30000B443002908BF70470A7822
:104800004B7863F30A2242804A788B78D20863F3AC
:104810004A120280CB788A7891F804C09B0043EA60
:1048200092126CF38A22C2800A794B79520863F3A0
:10483000CA1282804A79920902724A79C2F301123D
:104840004272CA8842810A8982814A89C2810A7B6E
:1048500002744A7B42748A7B02F0010282748A7B72
:10486000C2F34002C2748A7BC2F3800202758A7B63
:10487000C2F3C00242758A7BC2F3001202768A7BC1
:10488000C2F3401242768A7BC2F3801282758A7B21
:10489000D209C275098A418370470000FCF7FEFE09
:1048A000FEF7BCFDFEF70CFCFEF708FBFEF7C6FAB0
:1048B000FEF7B4FCFEF7D0FCFEF7F2FCFEF744FC7A
:1048C000FEF7DCFA40F6CC14C2F2000420460821C0
:1048D000FDF790FDFEF750FDFBF7C2FEFEF73CFB37
:1048E00000F00CF820680021C163FDE780B50128C5
:1048F00098BF012000F048FB002080BD80B500F08B
:10490000A5FB002080BD0000B0B584B043698E4691
:1049100093B1846984B10589D0E9001C026928B289
:10492000843D18BFC51CCDE9005360467346029410
:1049300000F00EFD039010E00589D0E90013028A13
:1049400028B2843D18BFC51C03AC18467346CDE998
:10495000005400F09FFC012802D1039804B0B0BDC0
:10496000002004B0B0BD00002DE9F047044600F07F
:1049700049FA44F2D870C2F20000016840F60037EC
:1049800001310160C2F20007396844F6A02A40F6FE
:104990001036C2F2000AC2F2000651B1DAF8000085
:1049A00000283DD13868E16AC06A884298BF3C60FF
:1049B00036E03C600068012832D10025701900F013
:1049C000DBF914358C2DF9D144F2F078C2F20008ED
:1049D000404600F0D1F944F60409C2F20009484605
:1049E00000F0CAF944F68C20C2F2000000F0C4F9CD
:1049F00044F6C020C2F2000000F0BEF944F6AC203C
:104A0000C2F2000000F0B8F940F60430C2F2000033
:104A1000C0F8008040F60C30C2F20000C0F80090F0
:104A200044F2E470C2F20000016844F2E87201311D
:104A30000160E06AC2F2000201211368814019435B
:104A400000EB8000116006EB8000211D00F0C2F930
:104A500000F0FCF9DAF8000088B13868E16AC06A51
:104A6000884228BFBDE8F0874EF60450CEF2000021
:104A70004FF080510160BFF34F8FBFF36F8FBDE8E0
:104A8000F087000044F2DC7540F6103A4EF6045808
:104A900044F6C02744F2D876C2F20005C2F2000AFA
:104AA000CEF200084FF08059C2F20007C2F20006B1
:104AB00003E000BF204600F0E1F92868C8B100F02B
:104AC000A1F9F868C468201D00F036F93068013893
:104AD000306028680138286000F0B8F994F8510077
:104AE0000228EAD00128E5D070B9206B00F0C6F9A1
:104AF000E0E7DAF800000228DFD3C8F80090BFF33F
:104B00004F8FBFF36F8FD8E74FF0500080F31188BD
:104B1000BFF36F8FBFF34F8FFEE7000008480068B8
:104B2000006880F308884FF0000080F3148862B6B4
:104B300061B6BFF34F8FBFF36F8F00DF00BF000080
:104B400008ED00E081B00020009040F27C50C2F2FD
:104B5000000000684FF0500181F31188BFF36F8FA0
:104B6000BFF34F8F013001D0FEE700BF009800284F
:104B7000FCD001B070470000F0B581B0044600F0F1
:104B8000A5FA40F60831C2F200010868002844F294
:104B9000EC70C2F2000028D140F6CC32C2F2000222
:104BA000D31D560702F5705618BF23F0070244F6CE
:104BB000A423C2F200030025C3E9002526F0070361
:104BC000A3F108060E6043E90255B31A0E68C2E964
:104BD000006344F67422C2F20002136044F6180225
:104BE000C2F200021360012202700278002A18BF8C
:104BF0004FF00042224238D13CB162071ABF24F084
:104C0000070202F11004083400E0002444F6180EF4
:104C1000C2F2000EDEF80020631E934225D244F655
:104C2000A423C2F200031E687568A54207D200BF24
:104C3000326822B1556833461646A542F8D30A6851
:104C4000964212D0D3F800C037682A1B112A1F6081
:104C50003FD333195D0719D04FF0500080F311880E
:104C6000BFF36F8FBFF34F8FFEE7002400F0A6FC69
:104C7000600708D04FF0500080F31188BFF36F8FAA
:104C8000BFF34F8FFEE7204601B0F0BD44F6A425E8
:104C9000C2F200055A6074602C462D689D42FBD319
:104CA0006268A7189F4203D15B681A44234662607A
:104CB0005A689F18AF4201D0294606E009688D4224
:104CC00003D0D5E900152A445A609C42196018BFE8
:104CD000236044F674217268DEF80030C2F20001ED
:104CE0000C689A1AA242CEF8002038BF0A600078F9
:104CF00044F680227168C2F20002002818BF41F019
:104D00000041136800200CF10804C6E90001581C9A
:104D10001060ABE7034644F6453021F00101C0F6D0
:104D200000004FF0807C03E903106FF00201A3F153
:104D3000440043E909127047D0E9013201699A60E1
:104D4000D1F804C082688445536008BF4A600022DD
:104D500002610868013808600868704744F620233B
:104D6000C2F20003036044F61C00C2F200000860B7
:104D700080201060704700004FF0FF31024642F87B
:104D8000081F00214260C0E9032201607047000053
:104D9000002101617047000080B5D1F800C01CF10E
:104DA000010207D000F108039E465B681A6862455D
:104DB000FAD901E0D0F810E0DEF8042008614A607A
:104DC0009160C1F808E0CEF804100168013101607B
:104DD00080BD0000D0F800C0436808619A684B604D
:104DE0008A609A68996051600CF101010160704716
:104DF000DFF80C00016841F47001016070470000A9
:104E000088ED00E04FF0500080F31188BFF36F8F02
:104E1000BFF34F8F40F27C50C2F2000001684A1C81
:104E2000026001B170474EF60450CEF200000068F7
:104E3000000608BF70474FF0500080F31188BFF3A1
:104E40006F8FBFF34F8F00BFFEE7000040F27C5032
:104E5000C2F20000016839B10139016018BF704722
:104E6000002080F3118870474FF0500080F31188C4
:104E7000BFF36F8FBFF34F8FFEE70000B0B5002880
:104E800008BFB0BD44F2EC71C2F20001097850F8DD
:104E9000042C002918BF4FF0004111420DD0A0F1A1
:104EA000080423689BB14FF0500080F31188BFF3D2
:104EB0006F8FBFF34F8F00BFFEE74FF0500080F3BE
:104EC0001188BFF36F8FBFF34F8F00BFFEE722EA59
:104ED000010140F8041C054600F0F8F844F61801FA
:104EE000C2F2000155F8040C0B682A461844086009
:104EF00044F6A421C2F2000108460968A142FBD38E
:104F00004368C518A54204D152F8042C04461A443B
:104F100042606368E2188A4201D00A460AE040F61D
:104F20000832C2F200021268914203D0D1E9002196
:104F300019446160A042226018BF046044F68420D6
:104F4000C2F20000016801310160BDE8B04000F02C
:104F500035BB00004EF21000CEF2000000210160CF
:104F6000816040F21051C2F20001096844F6D35248
:104F7000C1F26202A1FB02124FF0FF3101EB92116C
:104F8000416007210160704770B5002852D044F29B
:104F9000E071C2F200010A684AB14FF0500080F39C
:104FA0001188BFF36F8FBFF34F8F00BFFEE7054639
:104FB000086840F600340130086044F6D420C2F29C
:104FC0000000C2F20004066820680430FFF7B4FE57
:104FD00060B9206844F2E872C06AC2F2000201219E
:104FE000136801FA00F023EA000010602068AD1990
:104FF000456009D340F60C30C2F200000068216819
:105000000431FFF7C9FE10E040F60430C2F20000A0
:10501000006821680431FFF7BFFE44F67820C2F231
:10502000000001688D4238BF056000F0C7FA002813
:1050300018BF70BD4EF60450CEF200004FF0805104
:105040000160BFF34F8FBFF36F8F70BDB0B586B0F7
:10505000002405A804A903AACDE90444FFF77EFEB5
:10506000DDE90320059DCDE9004044F68520C0F62A
:10507000000014A10023029500F06AF944F61C20F8
:10508000C2F200000560DDB14FF0500080F31188DE
:10509000BFF36F8FBFF34F8F44F67820C2F200004A
:1050A0004FF0FF31016044F6A020C2F20000012160
:1050B000016044F6D420C2F20000046000F052F80F
:1050C00006B0B0BD49444C450000000044F2E07019
:1050D000C2F20000016801310160704744F2E070E3
:1050E000C2F20000006830B144F6D820C2F20000DD
:1050F00001210160704744F6D820C2F2000000216F
:10510000016044F2E870C2F200000068B0FA80F07A
:10511000C0B2C0F11F0040F6103100EB8000C2F2B7
:10512000000151F8202092B101EB8000416800F1AC
:10513000080249689142416001D149684160406874
:1051400040F60031C068C2F20001086070474FF0BD
:10515000500080F31188BFF36F8FBFF34F8F00BFF4
:10516000FEE70000B0B584B04EF20040CEF2000081
:105170004CF27021C4F20F11D0F800294B1C9A4256
:1051800009D14FF0500080F31188BFF36F8FBFF348
:105190004F8F00BFFEE7D0F800298A4209D14FF0B7
:1051A000500080F31188BFF36F8FBFF34F8F00BFA4
:1051B000FEE7017844F2CC720291FF210170017880
:1051C000C2F200028DF807109DF8071001F050019F
:1051D000117044F2D071C2F2000107220A609DF9F9
:1051E0000720B2F1FF3F0CDC062200BF0A609DF8E9
:1051F0000730013A5B008DF807309DF90730002B2E
:10520000F4D40A68032A3BD14FF440720A60029931
:105210000170D0F8201941F47001C0F82019D0F8BD
:10522000201941F07041C0F82019FFF793FE40F2B9
:105230007C54C2F2000400252560FFF7D9FD4EF62C
:105240003470CEF20000016841F040410160FFF788
:1052500065FCFFF743FF039520684FF0500181F391
:105260001188BFF36F8FBFF34F8F013002D000BFA3
:10527000FEE700BF03980028FCD0002004B0B0BDBA
:105280004FF0500080F31188BFF36F8FBFF34F8F43
:10529000FEE700002DE9F04781469000984614464D
:1052A0000F46FFF769FC70B105465420FFF764FC18
:1052B00030B1064605634EB94FF0FF30BDE8F087C8
:1052C0002846FFF7DBFD0026002EF5D0306BDDE928
:1052D000085A00EB84000438002120F0070406F18E
:1052E000340086F851105FB17A5C42547A5C1AB18E
:1052F0000F2901F10101F7D1002086F8430000E0F9
:1053000001700027301D062D28BF0625F562C6E96D
:105310001157FFF73DFD06F11800FFF739FD85F045
:105320000700B06120464946424636617662F7641E
:1053300086F85070FFF7EEFC30603046BAF1000F8F
:1053400018BFCAF80060FFF70FFB0120BDE8F08727
:105350002DE9F04782B0DDF82CC0BCF1000F21D060
:105360000C9C44B354270197019F542F2DD1DDF895
:1053700028A0019F022704F13406C4F830C084F845
:10538000517061B3002700BFCD5DF555CD5D1DB1F6
:105390000F2F07F10107F7D181460020984684F8C6
:1053A000430020E04FF0500080F31188BFF36F8F6F
:1053B000BFF34F8FFEE74FF0500080F31188BFF32B
:1053C0006F8FBFF34F8F00BFFEE74FF0500080F3A9
:1053D0001188BFF36F8FBFF34F8F00BFFEE7814689
:1053E0009846002030700CEB8200043820F007074C
:1053F0000025201DBAF1060F28BF4FF0060AC4F899
:105400002CA0C4E911A5FFF7C3FC04F11800FFF7B5
:10541000BFFC8AF00700A061384649464246246135
:105420006462E56484F85050FFF774FC2060204605
:10543000FFF79AFA204602B0BDE8F0872DE9F04F59
:1054400081B044F2E070C2F20000006840B144F65E
:105450008820C2F200000168002401310160A9E047
:1054600044F6D420C2F2000001684E1C06602ED320
:1054700040F60430C2F200000168096849B14FF0FB
:10548000500080F31188BFF36F8FBFF34F8F00BFC1
:10549000FEE740F60C32C2F20002016813680360B6
:1054A000116044F67C21C2F200010A6801320A60F0
:1054B0000168096821B10068C068C068406801E0FF
:1054C0004FF0FF3044F67821C2F20001086044F644
:1054D0007821C2F20001086840F6003A8642C2F222
:1054E000000A01D200244FE040F6043BC2F2000B58
:1054F000DBF8000000240068E0B344F2E8790127FB
:10550000C2F2000920E000BFD8F82C00D9F8001042
:1055100007FA00F21143C9F8001040F6103100EB11
:105520008000C2F2000101EB80002946FFF752FC27
:10553000D8F82C00DAF80010C96ADBF8002088429D
:10554000106828BF3C46C0B1DBF80000C068D0F846
:105550000C80454655F8040F864210D32846FFF7C5
:10556000EBFBD8F828000028CED008F11800FFF790
:10557000E3FBC9E74FF0FF3005E04FF0FF3044F6A2
:105580007821C2F200010860DAF8000040F610311C
:10559000C06AC2F2000100EB800051F8200001282F
:1055A00044F6D820C2F2000088BF01240068002819
:1055B00018BF0124204601B0BDE8F08F2DE9F04F5F
:1055C00081B044F2E074C2F20004206868B1FFF7D1
:1055D00019FC206801382060206880B10024FFF7A2
:1055E00035FC204601B0BDE8F08F4FF0500080F34D
:1055F0001188BFF36F8FBFF34F8F00BFFEE744F2F8
:10560000D870C2F2000000680028E7D044F68C266B
:10561000C2F20006306844F6D8280028C2F200081A
:1056200044D044F2E87540F6103940F6003A4FF0A5
:10563000010BC2F20005C2F20009C2F2000A00BF6B
:10564000F068C76807F11800FFF776FB3C1D20469D
:10565000FFF772FBF86A29680BFA00F2114300EBBE
:105660008000296009EB80002146FFF7B3FBF86A50
:10567000DAF80010C96A884228BFC8F800B030685C
:105680000028DDD197B140F60430C2F20000016875
:10569000096821B10068C068C068406801E04FF047
:1056A000FF3044F67821C2F20001086044F68824F5
:1056B000C2F2000425685DB1012600BFFFF7BEFEFF
:1056C000002818BFC8F80060013DF7D10020206015
:1056D000D8F8000000283FF481AF4EF60450CEF217
:1056E00000004FF080510160BFF34F8F0124BFF3E2
:1056F0006F8F74E74100080218BF04200A0E18BF1C
:1057000040F001004FF07F4232EA010108BF40F053
:105710000200012808BF05207047000010EE101A93
:1057200008B5444A6846B2EB410F28D94FF0E6402D
:10573000B0EB410F94BF00204FF0FF300090009875
:10574000002861DB60EE000A10F0010F45D010F078
:10575000020FDFED391A9FED391A00EEA11ADFEDC5
:10576000381A40EE811A21EEA01AF0EE400A40EEFF
:10577000010A08BFF1EE600AB0EE600A08BD314BC5
:1057800021F0004293423CD911F0004FDFED2E0A88
:1057900020EE201ADFED2D0A19BF31EE601A71EEEE
:1057A000200A31EE201A71EE600ABDEEE01A11EE09
:1057B000100A9FED271A00F0030000EEC10A9FEDCA
:1057C000251A009000EEC10A9FED231A00EEC10ACF
:1057D0009FED221A00EEC10AB1E79FED211A9FED5D
:1057E000210A10F0020F00EE810A9FED1F1A00EE51
:1057F000801AB7EE000A00EE810A18BFB1EE400A27
:1058000008BD00F067F99AE710EE100A4000B0F109
:105810007F4F3CBFB7EE000A08BD07D14FF0010033
:10582000FAF766FEBDE8084000F044B9BDE808405C
:1058300000F03CB9B61F927E336D4CB9DA82083C59
:10584000A0AA2ABE490E494683F9223F0000004B18
:105850000000C93F00A0FD390020A2331A61342C9A
:10586000B93AB2BACA9F2A3DDDFFFFBE10B52DED91
:10587000028BF0EE408A18EE900AB0EE608A20F0BB
:105880000040C0F1FF40C00F07D118EE100A20F011
:105890000040C0F1FF40C00F2BD018EE101A18EED8
:1058A000900A00F015FA00EE100A10EE100A6FEAE6
:1058B000D05010F0FF0F04BFBDEC028B10BD18EEEE
:1058C000900A00F0004110EE100A00F00040814202
:1058D00004BFBDEC028B10BD18EE101A10EE100ABA
:1058E000BDEC028B61F31E0000EE900A30EE600A00
:1058F00010BD18EE900A4FF07F41B1EB400F1CBF76
:1059000018EE100A5FEA4000C7D10120FAF7F0FD57
:10591000BDEC028BBDE8104000F0CCB800B510EE35
:10592000101A2DED028B81B0524A6846B2EB410F3E
:105930002ED94FF0E640B0EB410F94BF00204FF05E
:10594000FF3000900098B0EE408A00286ADB10F02B
:10595000010F4BD068EE080A9FED471A9FED470AEA
:1059600000EE810A9FED461A10F0020F00EE801A39
:10597000B7EE000A00EE810A02BF01B0BDEC028B57
:1059800000BD00BF01B0B1EE400ABDEC028B00BD0E
:105990003C4B21F00042934241D911F0004FDFED22
:1059A0003A0A20EE201ADFED390A19BF31EE601AEB
:1059B00071EE200A31EE201A71EE600ABDEEE01A97
:1059C00011EE100A9FED321A00F0030000EEC10A3A
:1059D0009FED301A009000EEC10A9FED2F1A00EEE5
:1059E000C10A9FED2E1A00EEC10AABE728EE080AA5
:1059F0009FED2B1ADFED2B0A10F0020F40EE010A8B
:105A00009FED291A00EE201A61EE000AB0EE480A56
:105A100008EE200AB6D101B0BDEC028B00BD00F04B
:105A200059F88FE718EE100A4000B0F17F4F0DD201
:105A300018EE100AFFF75EFE042808BF00F042F8D7
:105A4000B0EE480A01B0BDEC028B00BD09D10120C7
:105A5000FAF74EFD01B0BDEC028B5DF804EB00F0EF
:105A600029B801B0B0EE480ABDEC028B5DF804EB3A
:105A700000F01CB8B61F927EB93AB2BACA9F2A3D4E
:105A8000DDFFFFBE490E494683F9223F0000004B6F
:105A90000000C93F00A0FD390020A2331A61342C58
:105AA000336D4CB9DA82083CA0AA2ABE30EE000A57
:105AB00070470000DFED020A80EEA00A7047000088
:105AC000000000009FED020A20EE000A704700006F
:105AD000000000102DE9F0014FF07F42B2EB410FC2
